:1000000002308A003B2A0000C3204D21C9224E2A1B
:10001000C922CD2141270000CE27CE16C422D422EA
:10002000432A45220001C3204D21C9224E2AC9225C
:10003000CD21412700014F21CA2FC422D422432AB7
:1000400045220001C327CE23D42043244127482A38
:10005000D2244E2400014F21CA2FC422D422432A85
:10006000452200002C308400831300080319452822
:100070000630F800F701F70B3B28F80B3A287B30E5
:10008000F700F70B4128800B3828080032184A285F
:1000900008124B280816831608128312B218522829
:1000A00088125328881683168812831232195A2808
:1000B00008135B280817831608138312B2196228E5
:1000C0008813632888178316881300008312091584
:1000D000831609110330F700F70B6C2883120911FE
:1000E0008316091183120800B30183160816003025
:1000F0008312081A0130B304831688160030831265
:10010000881A0130F7000310F70D7708B30483163F
:10011000081700308312081B0130F700F70DF70DA8
:10012000FC30F7057708B304831688170030831274
:10013000881B0130F700F70DF70DF70DF830F705C4
:100140007708B3043308F800080083160911091072
:1001500089108312091083160910081688160817CB
:1001600088178312891483168910000083120915D9
:10017000831609110000831274207808B200091157
:100180008316091100008312091583160911C82866
:10019000C9280000831274207808B1000911831661
:1001A000091108128812081388138312320EF700FF
:1001B000F030F70577083104F8007808B100B11F76
:1001C000E3288316AD28AF08031DE8280910E928A5
:1001D00009148316091000008312891083168910F0
:1001E000000083120911831609118312300EB10029
:1001F0000F30B1053108B200462030080F39B10088
:10020000B200462008002830A8000C30A9000130B8
:10021000AA000630AB0009118316091183120910D8
:100220008316091083128910831689100812881208
:10023000081388130911091089100F308312AC00BC
:1002400032200130A7002708033C031C2F2903306C
:10025000B20046200530AC003220A70A2329023024
:10026000B20046200530AC003220A7012708033C2D
:10027000031C462928302707840083130008AC009C
:10028000AF012C08B000A520A70A36298A110A124E
:10029000842A8E30F7002808F8002708F900FA01B0
:1002A000F808031D5D297908F800F9010830F70204
:1002B000F808031D5D29F70165290310F81B64295F
:1002C000F90DF80DF7035D29F8138A110A128B2A2C
:1002D0002808AF002C08AF06AF1F732903110310C5
:1002E000A81B0314A6292808AF002B08B000270874
:1002F000B00203198129AF1FA6290308013A830020
:10030000A6292C08B0002808B00203198D29AF1FB8
:10031000A6290308013A8300A6292D08B000290860
:10032000B00203199929AF1FA6290308013A8300D7
:10033000A6292E08B0002A08B0020319A529AF1F6C
:10034000A6290308013A8300A629031008002C0BF4
:10035000AA29AD294030AD00AE29AD0101302B02F4
:10036000AD072D088038AE00AF012E08B000A520E3
:1003700008002A08073A0319C7290B3A0319CC29A0
:10038000063A0319D429023A0319DA29DF29013080
:10039000AB00AC00A721E429AF010130B000A520DB
:1003A0000230AC003220E4290130AB000230AC0056
:1003B000A721E429AF011030B000A520E4290130C5
:1003C000AF002A08B000A52008000B08A7008B1377
:1003D000831603178C170C140000000083120313FC
:1003E000A71B8B1703170C087F390319392A03132E
:1003F000A70003170D080313A80003170F08031322
:10040000A9002708AA00B921280803178D000313A3
:10041000290803178F0003130B08AA008B138316F8
:1004200003178C170C140000000083120313AA1B7F
:100430008B1703170C0D0E0D7F390319392A03137F
:10044000A70003170D080313A80003170F080313D1
:10045000A9002708AA00B921280803178D00031353
:10046000290803178F008D0A03198F0A0313E52942
:1004700003170313080003081F398300FF30A0008F
:10048000A201A101831603170908C03989000313CB
:100490001F129F1200300317880083128701880102
:1004A0008901831303131F139F1383169F13831252
:1004B0001F14831603170908C039890003131F127C
:1004C0009F120130031788000030F80083120313D5
:1004D0001F08C33978049F001030F700F70B6E2A0D
:1004E000000000308316880083128801FF308316D5
:1004F00087008312A0008316091089100911891141
:100500000F308500831203299F149F18852A1E0827
:10051000A801A70049297A08A6007908A50078084B
:10052000A4007708A300AA01A901A801A701260831
:10053000AE002508AD002408AC002308AB006821FC
:10054000031CCB2A20142008831687008312071C63
:10055000CB2A0C30AA00B92188010130AB00AC00D5
:10056000A721043003178D0000308F000313E5210D
:100570000130AB000230AC00A7210C3003178D0016
:1005800000308F000313E5210230A7009630AC0045
:100590003220A70BC62A2608AA002508A90024088D
:1005A000A8002308A700AE01AD01AC01AB01682192
:1005B000031D042B20142008831687008312071CB8
:1005C000042B013088000C30AA00B9210130AB00A7
:1005D000AC00A721133003178D0000308F000313E8
:1005E000E5210130AB000230AC00A7211B3003171E
:1005F0008D0000308F000313E5210230A7009630F4
:10060000AC003220A70BFF2A201420088316870095
:10061000831207182D2B0C30AA00B9210130880055
:10062000AB00AC00A721223003178D0000308F00F3
:100630000313E5210130AB000230AC00A7212B30C1
:1006400003178D0000308F000313E5210230A7004F
:0E0650009630AC003220A70B282B842A6300C2
:04400E00E22FFF3F5F
:00000001FF
;PIC16F887
;CRC=1F30  CREATED="13-Apr-22 21:13"
